{
  "contractName": "PositionManager",
  "abi": [
    {
      "inputs": [
        {
          "internalType": "address",
          "name": "_collateralAddress",
          "type": "address"
        },
        {
          "internalType": "address",
          "name": "_oracleAddress",
          "type": "address"
        },
        {
          "internalType": "string",
          "name": "_syntheticName",
          "type": "string"
        },
        {
          "internalType": "string",
          "name": "_syntheticSymbol",
          "type": "string"
        },
        {
          "internalType": "address",
          "name": "_tokenFactoryAddress",
          "type": "address"
        },
        {
          "internalType": "uint256",
          "name": "_collateralizationRatio",
          "type": "uint256"
        }
      ],
      "stateMutability": "nonpayable",
      "type": "constructor"
    },
    {
      "anonymous": false,
      "inputs": [
        {
          "indexed": true,
          "internalType": "address",
          "name": "sponsor",
          "type": "address"
        },
        {
          "indexed": true,
          "internalType": "uint256",
          "name": "collateralAmount",
          "type": "uint256"
        }
      ],
      "name": "Deposit",
      "type": "event"
    },
    {
      "anonymous": false,
      "inputs": [
        {
          "indexed": true,
          "internalType": "address",
          "name": "sponsor",
          "type": "address"
        }
      ],
      "name": "NewSponsor",
      "type": "event"
    },
    {
      "anonymous": false,
      "inputs": [
        {
          "indexed": true,
          "internalType": "address",
          "name": "sponsor",
          "type": "address"
        },
        {
          "indexed": true,
          "internalType": "uint256",
          "name": "collateralAmount",
          "type": "uint256"
        },
        {
          "indexed": true,
          "internalType": "uint256",
          "name": "tokenAmount",
          "type": "uint256"
        }
      ],
      "name": "PositionCreated",
      "type": "event"
    },
    {
      "inputs": [],
      "name": "collateralCurrency",
      "outputs": [
        {
          "internalType": "contract IERC20",
          "name": "",
          "type": "address"
        }
      ],
      "stateMutability": "view",
      "type": "function",
      "constant": true
    },
    {
      "inputs": [],
      "name": "collateralizationRatio",
      "outputs": [
        {
          "internalType": "uint256",
          "name": "",
          "type": "uint256"
        }
      ],
      "stateMutability": "view",
      "type": "function",
      "constant": true
    },
    {
      "inputs": [],
      "name": "oracle",
      "outputs": [
        {
          "internalType": "contract IOracle",
          "name": "",
          "type": "address"
        }
      ],
      "stateMutability": "view",
      "type": "function",
      "constant": true
    },
    {
      "inputs": [
        {
          "internalType": "address",
          "name": "",
          "type": "address"
        }
      ],
      "name": "positions",
      "outputs": [
        {
          "internalType": "uint256",
          "name": "tokensOutstanding",
          "type": "uint256"
        },
        {
          "internalType": "uint256",
          "name": "rawCollateral",
          "type": "uint256"
        }
      ],
      "stateMutability": "view",
      "type": "function",
      "constant": true
    },
    {
      "inputs": [],
      "name": "rawTotalPositionCollateral",
      "outputs": [
        {
          "internalType": "uint256",
          "name": "",
          "type": "uint256"
        }
      ],
      "stateMutability": "view",
      "type": "function",
      "constant": true
    },
    {
      "inputs": [],
      "name": "tokenCurrency",
      "outputs": [
        {
          "internalType": "contract IExpandedIERC20",
          "name": "",
          "type": "address"
        }
      ],
      "stateMutability": "view",
      "type": "function",
      "constant": true
    },
    {
      "inputs": [],
      "name": "totalTokensOutstanding",
      "outputs": [
        {
          "internalType": "uint256",
          "name": "",
          "type": "uint256"
        }
      ],
      "stateMutability": "view",
      "type": "function",
      "constant": true
    },
    {
      "inputs": [
        {
          "internalType": "uint256",
          "name": "collateralAmount",
          "type": "uint256"
        },
        {
          "internalType": "uint256",
          "name": "numTokens",
          "type": "uint256"
        }
      ],
      "name": "create",
      "outputs": [],
      "stateMutability": "nonpayable",
      "type": "function"
    },
    {
      "inputs": [
        {
          "internalType": "uint256",
          "name": "collateralAmount",
          "type": "uint256"
        }
      ],
      "name": "deposit",
      "outputs": [],
      "stateMutability": "nonpayable",
      "type": "function"
    },
    {
      "inputs": [],
      "name": "myCollateralizationRatio",
      "outputs": [
        {
          "internalType": "uint256",
          "name": "ratio",
          "type": "uint256"
        }
      ],
      "stateMutability": "view",
      "type": "function",
      "constant": true
    },
    {
      "inputs": [],
      "name": "getTokenCurrency",
      "outputs": [
        {
          "internalType": "address",
          "name": "",
          "type": "address"
        }
      ],
      "stateMutability": "view",
      "type": "function",
      "constant": true
    },
    {
      "inputs": [
        {
          "internalType": "uint256",
          "name": "collateral",
          "type": "uint256"
        },
        {
          "internalType": "uint256",
          "name": "numTokens",
          "type": "uint256"
        }
      ],
      "name": "getCollateralizationRatio",
      "outputs": [
        {
          "internalType": "uint256",
          "name": "ratio",
          "type": "uint256"
        }
      ],
      "stateMutability": "view",
      "type": "function",
      "constant": true
    }
  ],
  "bytecode": "0x60806040523480156200001157600080fd5b5060405162001a9738038062001a9783398181016040526200003791908101906200031e565b60016000806101000a81548160ff02191690831515021790555062000061620001f260201b60201c565b620000716200024560201b60201c565b60008290508073ffffffffffffffffffffffffffffffffffffffff1663e8a0aed3868660126040518463ffffffff1660e01b8152600401620000b693929190620004a6565b602060405180830381600087803b158015620000d157600080fd5b505af1158015620000e6573d6000803e3d6000fd5b505050506040513d601f19601f820116820180604052506200010c9190810190620003e6565b600460006101000a81548173ffffffffffffffffffffffffffffffffffffffff021916908373ffffffffffffffffffffffffffffffffffffffff16021790555085600560006101000a81548173ffffffffffffffffffffffffffffffffffffffff021916908373ffffffffffffffffffffffffffffffffffffffff16021790555086600660006101000a81548173ffffffffffffffffffffffffffffffffffffffff021916908373ffffffffffffffffffffffffffffffffffffffff1602179055508160078190555050620001e66200026160201b60201c565b50505050505062000692565b6000809054906101000a900460ff1662000243576040517f08c379a00000000000000000000000000000000000000000000000000000000081526004016200023a90620004f1565b60405180910390fd5b565b60008060006101000a81548160ff021916908315150217905550565b60016000806101000a81548160ff021916908315150217905550565b6000815190506200028e8162000644565b92915050565b600081519050620002a5816200065e565b92915050565b600082601f830112620002bd57600080fd5b8151620002d4620002ce8262000541565b62000513565b91508082526020830160208301858383011115620002f157600080fd5b620002fe838284620005fd565b50505092915050565b600081519050620003188162000678565b92915050565b60008060008060008060c087890312156200033857600080fd5b60006200034889828a016200027d565b96505060206200035b89828a016200027d565b955050604087015167ffffffffffffffff8111156200037957600080fd5b6200038789828a01620002ab565b945050606087015167ffffffffffffffff811115620003a557600080fd5b620003b389828a01620002ab565b9350506080620003c689828a016200027d565b92505060a0620003d989828a0162000307565b9150509295509295509295565b600060208284031215620003f957600080fd5b6000620004098482850162000294565b91505092915050565b6200041d81620005e9565b82525050565b600062000430826200056e565b6200043c818562000579565b93506200044e818560208601620005fd565b620004598162000633565b840191505092915050565b600062000473601f8362000579565b91507f5265656e7472616e637947756172643a207265656e7472616e742063616c6c006000830152602082019050919050565b60006060820190508181036000830152620004c2818662000423565b90508181036020830152620004d8818562000423565b9050620004e9604083018462000412565b949350505050565b600060208201905081810360008301526200050c8162000464565b9050919050565b6000604051905081810181811067ffffffffffffffff821117156200053757600080fd5b8060405250919050565b600067ffffffffffffffff8211156200055957600080fd5b601f19601f8301169050602081019050919050565b600081519050919050565b600082825260208201905092915050565b60006200059782620005b2565b9050919050565b6000620005ab826200058a565b9050919050565b600073ffffffffffffffffffffffffffffffffffffffff82169050919050565b6000819050919050565b600060ff82169050919050565b6000620005f682620005dc565b9050919050565b60005b838110156200061d57808201518184015260208101905062000600565b838111156200062d576000848401525b50505050565b6000601f19601f8301169050919050565b6200064f816200058a565b81146200065b57600080fd5b50565b62000669816200059e565b81146200067557600080fd5b50565b6200068381620005d2565b81146200068f57600080fd5b50565b6113f580620006a26000396000f3fe608060405234801561001057600080fd5b50600436106100b45760003560e01c80637dc0d1d0116100715780637dc0d1d0146101925780638c382eb2146101b05780639f7b4579146101ce578063b6b55f25146101ea578063dcaf9c4414610206578063fedb9da514610224576100b4565b80630b125221146100b95780630c9229ca146100e95780630de15fd9146101075780634a0cd8791461012557806355f57510146101435780637048594b14610174575b600080fd5b6100d360048036036100ce9190810190610d43565b610242565b6040516100e091906111ec565b60405180910390f35b6100f1610256565b6040516100fe91906111ec565b60405180910390f35b61010f61025c565b60405161011c9190611099565b60405180910390f35b61012d610282565b60405161013a91906111ec565b60405180910390f35b61015d60048036036101589190810190610c9f565b6102de565b60405161016b929190611207565b60405180910390f35b61017c610302565b60405161018991906110b4565b60405180910390f35b61019a610328565b6040516101a791906110cf565b60405180910390f35b6101b861034e565b6040516101c591906111ec565b60405180910390f35b6101e860048036036101e39190810190610d43565b610354565b005b61020460048036036101ff9190810190610cf1565b610677565b005b61020e6107e3565b60405161021b91906111ec565b60405180910390f35b61022c6107e9565b604051610239919061101e565b60405180910390f35b600061024e8383610813565b905092915050565b60025481565b600660009054906101000a900473ffffffffffffffffffffffffffffffffffffffff1681565b600080600160003373ffffffffffffffffffffffffffffffffffffffff1673ffffffffffffffffffffffffffffffffffffffff16815260200190815260200160002090506102d881600101548260000154610813565b91505090565b60016020528060005260406000206000915090508060000154908060010154905082565b600460009054906101000a900473ffffffffffffffffffffffffffffffffffffffff1681565b600560009054906101000a900473ffffffffffffffffffffffffffffffffffffffff1681565b60035481565b61035c610916565b610364610966565b6000600160003373ffffffffffffffffffffffffffffffffffffffff1673ffffffffffffffffffffffffffffffffffffffff16815260200190815260200160002090506103b18383610982565b6103f0576040517f08c379a00000000000000000000000000000000000000000000000000000000081526004016103e7906111ac565b60405180910390fd5b600081600001541415610441573373ffffffffffffffffffffffffffffffffffffffff167ff60993fa76f94c9e0a803526ee6e1314814ed4d2b0d223febf1436b36897fb3760405160405180910390a25b61044b81846109a6565b6104628282600001546109e490919063ffffffff16565b816000018190555061047f826002546109e490919063ffffffff16565b60028190555081833373ffffffffffffffffffffffffffffffffffffffff167f4b82aa16e071a61de1a6b9aeec9edab0356331f8122c78683b469ac8e685dabc60405160405180910390a4600660009054906101000a900473ffffffffffffffffffffffffffffffffffffffff1673ffffffffffffffffffffffffffffffffffffffff166323b872dd3330866040518463ffffffff1660e01b815260040161052993929190611039565b602060405180830381600087803b15801561054357600080fd5b505af1158015610557573d6000803e3d6000fd5b505050506040513d601f19601f8201168201806040525061057b9190810190610cc8565b50600460009054906101000a900473ffffffffffffffffffffffffffffffffffffffff1673ffffffffffffffffffffffffffffffffffffffff166340c10f1933846040518363ffffffff1660e01b81526004016105d9929190611070565b602060405180830381600087803b1580156105f357600080fd5b505af1158015610607573d6000803e3d6000fd5b505050506040513d601f19601f8201168201806040525061062b9190810190610cc8565b61066a576040517f08c379a00000000000000000000000000000000000000000000000000000000081526004016106619061118c565b60405180910390fd5b50610673610a39565b5050565b61067f610916565b610687610966565b600081116106ca576040517f08c379a00000000000000000000000000000000000000000000000000000000081526004016106c19061112c565b60405180910390fd5b60006106d533610a55565b90506106e181836109a6565b813373ffffffffffffffffffffffffffffffffffffffff167fe1fffcc4923d04b559f4d29a8bfc6cda04eb5b0d3c460751c2402c5c5cc9109c60405160405180910390a3600660009054906101000a900473ffffffffffffffffffffffffffffffffffffffff1673ffffffffffffffffffffffffffffffffffffffff166323b872dd3330856040518463ffffffff1660e01b815260040161078493929190611039565b602060405180830381600087803b15801561079e57600080fd5b505af11580156107b2573d6000803e3d6000fd5b505050506040513d601f19601f820116820180604052506107d69190810190610cc8565b50506107e0610a39565b50565b60075481565b6000600460009054906101000a900473ffffffffffffffffffffffffffffffffffffffff16905090565b600080600560009054906101000a900473ffffffffffffffffffffffffffffffffffffffff1673ffffffffffffffffffffffffffffffffffffffff1663209652556040518163ffffffff1660e01b815260040160206040518083038186803b15801561087e57600080fd5b505afa158015610892573d6000803e3d6000fd5b505050506040513d601f19601f820116820180604052506108b69190810190610d1a565b905060006108e2620f42406108d48488610aa890919063ffffffff16565b610b1890919063ffffffff16565b905061090c846108fe620f424084610aa890919063ffffffff16565b610b1890919063ffffffff16565b9250505092915050565b6000809054906101000a900460ff16610964576040517f08c379a000000000000000000000000000000000000000000000000000000000815260040161095b906111cc565b60405180910390fd5b565b60008060006101000a81548160ff021916908315150217905550565b600080600754905060006109968585610813565b9050808211159250505092915050565b6109bd8183600101546109e490919063ffffffff16565b82600101819055506109da816003546109e490919063ffffffff16565b6003819055505050565b600080828401905083811015610a2f576040517f08c379a0000000000000000000000000000000000000000000000000000000008152600401610a269061110c565b60405180910390fd5b8091505092915050565b60016000806101000a81548160ff021916908315150217905550565b600081610a6181610b62565b600160008473ffffffffffffffffffffffffffffffffffffffff1673ffffffffffffffffffffffffffffffffffffffff168152602001908152602001600020915050919050565b600080831415610abb5760009050610b12565b6000828402905082848281610acc57fe5b0414610b0d576040517f08c379a0000000000000000000000000000000000000000000000000000000008152600401610b049061116c565b60405180910390fd5b809150505b92915050565b6000610b5a83836040518060400160405280601a81526020017f536166654d6174683a206469766973696f6e206279207a65726f000000000000815250610bea565b905092915050565b6000600160008373ffffffffffffffffffffffffffffffffffffffff1673ffffffffffffffffffffffffffffffffffffffff1681526020019081526020016000206001015411610be7576040517f08c379a0000000000000000000000000000000000000000000000000000000008152600401610bde9061114c565b60405180910390fd5b50565b60008083118290610c31576040517f08c379a0000000000000000000000000000000000000000000000000000000008152600401610c2891906110ea565b60405180910390fd5b506000838581610c3d57fe5b049050809150509392505050565b600081359050610c5a8161137a565b92915050565b600081519050610c6f81611391565b92915050565b600081359050610c84816113a8565b92915050565b600081519050610c99816113a8565b92915050565b600060208284031215610cb157600080fd5b6000610cbf84828501610c4b565b91505092915050565b600060208284031215610cda57600080fd5b6000610ce884828501610c60565b91505092915050565b600060208284031215610d0357600080fd5b6000610d1184828501610c75565b91505092915050565b600060208284031215610d2c57600080fd5b6000610d3a84828501610c8a565b91505092915050565b60008060408385031215610d5657600080fd5b6000610d6485828601610c75565b9250506020610d7585828601610c75565b9150509250929050565b610d8881611294565b82525050565b610d978161124c565b82525050565b610da6816112a6565b82525050565b610db5816112ca565b82525050565b610dc4816112ee565b82525050565b6000610dd582611230565b610ddf818561123b565b9350610def818560208601611336565b610df881611369565b840191505092915050565b6000610e10601b8361123b565b91507f536166654d6174683a206164646974696f6e206f766572666c6f7700000000006000830152602082019050919050565b6000610e5060198361123b565b91507f496e76616c696420636f6c6c61746572616c20616d6f756e74000000000000006000830152602082019050919050565b6000610e90601a8361123b565b91507f506f736974696f6e20686173206e6f20636f6c6c61746572616c0000000000006000830152602082019050919050565b6000610ed060218361123b565b91507f536166654d6174683a206d756c7469706c69636174696f6e206f766572666c6f60008301527f77000000000000000000000000000000000000000000000000000000000000006020830152604082019050919050565b6000610f36601f8361123b565b91507f4d696e74696e672073796e74686574696320746f6b656e73206661696c6564006000830152602082019050919050565b6000610f76602b8361123b565b91507f506f736974696f6e2062656c6f77207468616e20636f6c6c61746572616c697a60008301527f6174696f6e20726174696f0000000000000000000000000000000000000000006020830152604082019050919050565b6000610fdc601f8361123b565b91507f5265656e7472616e637947756172643a207265656e7472616e742063616c6c006000830152602082019050919050565b6110188161128a565b82525050565b60006020820190506110336000830184610d8e565b92915050565b600060608201905061104e6000830186610d7f565b61105b6020830185610d8e565b611068604083018461100f565b949350505050565b60006040820190506110856000830185610d7f565b611092602083018461100f565b9392505050565b60006020820190506110ae6000830184610d9d565b92915050565b60006020820190506110c96000830184610dac565b92915050565b60006020820190506110e46000830184610dbb565b92915050565b600060208201905081810360008301526111048184610dca565b905092915050565b6000602082019050818103600083015261112581610e03565b9050919050565b6000602082019050818103600083015261114581610e43565b9050919050565b6000602082019050818103600083015261116581610e83565b9050919050565b6000602082019050818103600083015261118581610ec3565b9050919050565b600060208201905081810360008301526111a581610f29565b9050919050565b600060208201905081810360008301526111c581610f69565b9050919050565b600060208201905081810360008301526111e581610fcf565b9050919050565b6000602082019050611201600083018461100f565b92915050565b600060408201905061121c600083018561100f565b611229602083018461100f565b9392505050565b600081519050919050565b600082825260208201905092915050565b60006112578261126a565b9050919050565b60008115159050919050565b600073ffffffffffffffffffffffffffffffffffffffff82169050919050565b6000819050919050565b600061129f82611312565b9050919050565b60006112b1826112b8565b9050919050565b60006112c38261126a565b9050919050565b60006112d5826112dc565b9050919050565b60006112e78261126a565b9050919050565b60006112f982611300565b9050919050565b600061130b8261126a565b9050919050565b600061131d82611324565b9050919050565b600061132f8261126a565b9050919050565b60005b83811015611354578082015181840152602081019050611339565b83811115611363576000848401525b50505050565b6000601f19601f8301169050919050565b6113838161124c565b811461138e57600080fd5b50565b61139a8161125e565b81146113a557600080fd5b50565b6113b18161128a565b81146113bc57600080fd5b5056fea2646970667358221220fd0b127b37b1beb6e8f7a3affb381878c223b6365be6d260150579a39221ec2d64736f6c63430006030033",
  "source": "pragma solidity ^0.6.0;\npragma experimental ABIEncoderV2;\n\nimport \"./interfaces/IPositionManager.sol\";\nimport \"./utility/SafeMath.sol\";\nimport \"./utility/Lockable.sol\"; \nimport \"./interfaces/IERC20.sol\";\nimport \"./interfaces/IExpandedIERC20.sol\";\nimport \"./interfaces/IOracle.sol\";\nimport \"./TokenFactory.sol\";\n\ncontract PositionManager is IPositionManager, Lockable {\n    using SafeMath for uint256;\n\n    struct PositionData {\n        // Total tokens have been issued\n        uint256 tokensOutstanding;\n        // Raw collateral value.\n        uint256 rawCollateral;\n    }\n\n    // Maps sponsor addresses to their positions. Each sponsor can have only one position.\n    mapping(address => PositionData) public positions;\n\n    // Keep track of the total collateral and tokens across all positions\n    uint256 public totalTokensOutstanding;\n    // Keep track of the raw collateral across all positions\n    uint256 public rawTotalPositionCollateral;\n    // Synthetic token created by this contract.\n    IExpandedIERC20 public tokenCurrency;\n    // Oracle\n    IOracle public oracle;\n    // The collateral currency used to back the positions in this contract.\n    IERC20 public collateralCurrency;\n    // collateralization ratio. (105%)\n    uint256 public collateralizationRatio;\n\n    /****************************************\n     *          EVENTS          *\n    ****************************************/\n    event NewSponsor(address indexed sponsor);\n    event PositionCreated(address indexed sponsor, uint256 indexed collateralAmount, uint256 indexed tokenAmount);\n    event Deposit(address indexed sponsor, uint256 indexed collateralAmount);\n\n\n    /**\n     * @param _collateralAddress currency to be used as collateral\n     * @param _oracleAddress address of the oracle contract\n     * @param _syntheticName name of synthetic token to be created\n     * @param _syntheticSymbol symbol of synthetic token to be created\n     * @param _tokenFactoryAddress token factory contract address\n     */\n    constructor(\n        address _collateralAddress,\n        address _oracleAddress,\n        string memory _syntheticName,\n        string memory _syntheticSymbol,\n        address _tokenFactoryAddress,\n        uint256 _collateralizationRatio\n    ) public nonReentrant() {\n        TokenFactory tf = TokenFactory(_tokenFactoryAddress);\n        tokenCurrency = tf.createToken(_syntheticName, _syntheticSymbol, 18);\n        oracle = IOracle(_oracleAddress);\n        collateralCurrency = IERC20(_collateralAddress);\n        collateralizationRatio = _collateralizationRatio;\n    }\n\n    /**\n     * @dev Creates tokens by creating a new position\n     * @param collateralAmount total amount of collateral tokens to be sent to the sponsor's position.\n     */\n    function create(uint256 collateralAmount, uint256 numTokens)\n        public\n        nonReentrant() \n    {\n        PositionData storage positionData = positions[msg.sender];\n        // Position CR must be above the system CR.\n        require(\n            _checkCollateralization(collateralAmount, numTokens),\n            \"Position below than collateralization ratio\"\n        );\n\n        if (positionData.tokensOutstanding == 0) {\n            emit NewSponsor(msg.sender);\n        }\n\n        // Increase the position and global collateral balance by collateral amount.\n        _incrementCollateralBalances(positionData, collateralAmount);\n\n        // Add the number of tokens created to the position's outstanding tokens.\n        positionData.tokensOutstanding = positionData.tokensOutstanding.add(numTokens);\n\n        totalTokensOutstanding = totalTokensOutstanding.add(numTokens);\n\n        emit PositionCreated(msg.sender, collateralAmount, numTokens);\n\n        // Transfer tokens into the contract from caller and mint corresponding synthetic tokens to the caller's address.\n        // FIXME: Use safeTransferFrom()\n        collateralCurrency.transferFrom(msg.sender, address(this), collateralAmount);\n        require(tokenCurrency.mint(msg.sender, numTokens), \"Minting synthetic tokens failed\");\n\n    }\n\n    /**\n     * @dev Increases the collateralization level of a position after creation. This contract must be approved to spend\n     * @param collateralAmount total amount of collateral tokens to be sent to the sponsor's position.\n     */\n    function deposit(uint256 collateralAmount) public nonReentrant() {\n        require(collateralAmount > 0, \"Invalid collateral amount\");\n        PositionData storage positionData = _getPositionData(msg.sender);\n\n        // Increase the position and global collateral balance by collateral amount.\n        _incrementCollateralBalances(positionData, collateralAmount);\n\n        emit Deposit(msg.sender, collateralAmount);\n\n        // Move collateral currency from sender to contract.\n        // FIXME: use safeTransferFrom()\n        collateralCurrency.transferFrom(msg.sender, address(this), collateralAmount);\n\n    }\n\n    /**\n     * @dev To get the current collateralization ratio from the sender\n     */\n    function myCollateralizationRatio()\n        public\n        view\n        returns (uint256 ratio)\n    {\n        PositionData storage positionData = positions[msg.sender];\n        return _getCollateralizationRatio(positionData.rawCollateral, positionData.tokensOutstanding);\n    }\n\n    function getTokenCurrency()\n        public\n        view\n        returns (address)\n    {\n        return address(tokenCurrency);\n    }\n\n    function getCollateralizationRatio(uint256 collateral, uint256 numTokens)\n        public\n        view\n        returns (uint256 ratio)\n    {\n        return _getCollateralizationRatio(collateral, numTokens);\n    }\n\n\n    /****************************************\n     *          INTERNAL FUNCTIONS          *\n    ****************************************/\n    modifier onlyCollateralizedPosition(address sponsor) {\n        _onlyCollateralizedPosition(sponsor);\n        _;\n    }\n\n    function _onlyCollateralizedPosition(address sponsor) internal view {\n        require(\n            (positions[sponsor].rawCollateral) > 0 ,\n            \"Position has no collateral\"\n        );\n    }\n\n    function _getPositionData(address sponsor)\n        internal\n        view\n        onlyCollateralizedPosition(sponsor)\n        returns (PositionData storage)\n    {\n        return positions[sponsor];\n    }\n\n    function _checkCollateralization(uint256 collateral, uint256 numTokens)\n        private\n        view\n        returns (bool)\n    {\n        uint256 currentCR = collateralizationRatio;\n        \n        uint256 thisChange = _getCollateralizationRatio(collateral, numTokens);\n\n        return !(currentCR > (thisChange));\n    }\n\n    function _getCollateralizationRatio(uint256 collateral, uint256 numTokens)\n        private\n        view\n        returns (uint256 ratio)\n    {\n        uint256 currentRate = oracle.getValue();\n        uint256 fullyBacked = collateral.mul(currentRate).div(1000000);\n        return fullyBacked.mul(1000000).div(numTokens);\n    }\n\n    function _incrementCollateralBalances(\n        PositionData storage positionData,\n        uint256 collateralAmount\n    ) internal {\n        positionData.rawCollateral = positionData.rawCollateral.add(collateralAmount);\n        rawTotalPositionCollateral = rawTotalPositionCollateral.add(collateralAmount);\n    }\n\n    \n\n}\n",
  "sourcePath": "/home/pisuthd/Desktop/textsonic/bai-stablecoin/contracts/PositionManager.sol",
  "compiler": {
    "name": "solc",
    "version": "0.6.3+commit.8dda9521.Emscripten.clang"
  },
  "schemaVersion": "3.2.0",
  "updatedAt": "2020-12-07T13:54:12.012Z",
  "networkType": "ethereum",
  "devdoc": {
    "methods": {
      "constructor": {
        "params": {
          "_collateralAddress": "currency to be used as collateral",
          "_oracleAddress": "address of the oracle contract",
          "_syntheticName": "name of synthetic token to be created",
          "_syntheticSymbol": "symbol of synthetic token to be created",
          "_tokenFactoryAddress": "token factory contract address"
        }
      },
      "create(uint256,uint256)": {
        "details": "Creates tokens by creating a new position",
        "params": {
          "collateralAmount": "total amount of collateral tokens to be sent to the sponsor's position."
        }
      },
      "deposit(uint256)": {
        "details": "Increases the collateralization level of a position after creation. This contract must be approved to spend",
        "params": {
          "collateralAmount": "total amount of collateral tokens to be sent to the sponsor's position."
        }
      },
      "myCollateralizationRatio()": {
        "details": "To get the current collateralization ratio from the sender"
      }
    }
  },
  "userdoc": {
    "methods": {}
  }
}